{
  "abi": [
    {
      "inputs": [],
      "stateMutability": "nonpayable",
      "type": "constructor"
    },
    {
      "inputs": [
        {
          "internalType": "address",
          "name": "account",
          "type": "address"
        }
      ],
      "name": "AddressInsufficientBalance",
      "type": "error"
    },
    {
      "inputs": [],
      "name": "FailedInnerCall",
      "type": "error"
    },
    {
      "anonymous": false,
      "inputs": [
        {
          "indexed": false,
          "internalType": "uint256",
          "name": "requestId",
          "type": "uint256"
        },
        {
          "indexed": false,
          "internalType": "address",
          "name": "depositRecipient",
          "type": "address"
        },
        {
          "indexed": false,
          "internalType": "address",
          "name": "tokenAddress",
          "type": "address"
        },
        {
          "indexed": false,
          "internalType": "uint256",
          "name": "amount",
          "type": "uint256"
        }
      ],
      "name": "DepositAcceptedIntoQueue",
      "type": "event"
    },
    {
      "anonymous": false,
      "inputs": [
        {
          "indexed": false,
          "internalType": "uint256",
          "name": "requestId",
          "type": "uint256"
        },
        {
          "indexed": false,
          "internalType": "bool",
          "name": "cancelJustified",
          "type": "bool"
        }
      ],
      "name": "DisputeResolutionAcceptedIntoQueue",
      "type": "event"
    },
    {
      "anonymous": false,
      "inputs": [
        {
          "indexed": false,
          "internalType": "address",
          "name": "sender",
          "type": "address"
        },
        {
          "indexed": false,
          "internalType": "uint256",
          "name": "amount",
          "type": "uint256"
        }
      ],
      "name": "EthWithdrawPending",
      "type": "event"
    },
    {
      "anonymous": false,
      "inputs": [
        {
          "indexed": false,
          "internalType": "address",
          "name": "depositRecipient",
          "type": "address"
        },
        {
          "indexed": false,
          "internalType": "address",
          "name": "tokenAddress",
          "type": "address"
        },
        {
          "indexed": false,
          "internalType": "uint256",
          "name": "amount",
          "type": "uint256"
        }
      ],
      "name": "FundsReturned",
      "type": "event"
    },
    {
      "anonymous": false,
      "inputs": [
        {
          "indexed": false,
          "internalType": "address",
          "name": "withdrawRecipient",
          "type": "address"
        },
        {
          "indexed": false,
          "internalType": "address",
          "name": "tokenAddress",
          "type": "address"
        },
        {
          "indexed": false,
          "internalType": "uint256",
          "name": "amount",
          "type": "uint256"
        }
      ],
      "name": "FundsWithdrawn",
      "type": "event"
    },
    {
      "anonymous": false,
      "inputs": [
        {
          "indexed": false,
          "internalType": "uint256",
          "name": "requestId",
          "type": "uint256"
        },
        {
          "indexed": false,
          "internalType": "uint256[]",
          "name": "l2UpdatesToRemove",
          "type": "uint256[]"
        }
      ],
      "name": "L2UpdatesToRemovedAcceptedIntoQueue",
      "type": "event"
    },
    {
      "anonymous": false,
      "inputs": [
        {
          "indexed": false,
          "internalType": "address",
          "name": "sender",
          "type": "address"
        },
        {
          "indexed": false,
          "internalType": "uint256",
          "name": "amount",
          "type": "uint256"
        }
      ],
      "name": "PendingEthWithdrawn",
      "type": "event"
    },
    {
      "anonymous": false,
      "inputs": [
        {
          "indexed": false,
          "internalType": "uint256",
          "name": "requestId",
          "type": "uint256"
        },
        {
          "indexed": false,
          "internalType": "bool",
          "name": "success",
          "type": "bool"
        }
      ],
      "name": "WithdrawalResolutionAcceptedIntoQueue",
      "type": "event"
    },
    {
      "anonymous": false,
      "inputs": [
        {
          "indexed": false,
          "internalType": "bytes32",
          "name": "cancelHash",
          "type": "bytes32"
        },
        {
          "indexed": false,
          "internalType": "bytes32",
          "name": "calculatedHash",
          "type": "bytes32"
        }
      ],
      "name": "cancelAndCalculatedHash",
      "type": "event"
    },
    {
      "inputs": [],
      "name": "ETH_TOKEN_ADDRESS",
      "outputs": [
        {
          "internalType": "address",
          "name": "",
          "type": "address"
        }
      ],
      "stateMutability": "view",
      "type": "function"
    },
    {
      "inputs": [
        {
          "internalType": "uint256",
          "name": "",
          "type": "uint256"
        }
      ],
      "name": "cancelResolutions",
      "outputs": [
        {
          "components": [
            {
              "internalType": "enum RollDown.Origin",
              "name": "origin",
              "type": "uint8"
            },
            {
              "internalType": "uint256",
              "name": "id",
              "type": "uint256"
            }
          ],
          "internalType": "struct RollDown.RequestId",
          "name": "requestId",
          "type": "tuple"
        },
        {
          "internalType": "uint256",
          "name": "l2RequestId",
          "type": "uint256"
        },
        {
          "internalType": "bool",
          "name": "cancelJustified",
          "type": "bool"
        },
        {
          "internalType": "uint256",
          "name": "timeStamp",
          "type": "uint256"
        }
      ],
      "stateMutability": "view",
      "type": "function"
    },
    {
      "inputs": [],
      "name": "counter",
      "outputs": [
        {
          "internalType": "uint256",
          "name": "",
          "type": "uint256"
        }
      ],
      "stateMutability": "view",
      "type": "function"
    },
    {
      "inputs": [
        {
          "internalType": "address",
          "name": "tokenAddress",
          "type": "address"
        },
        {
          "internalType": "uint256",
          "name": "amount",
          "type": "uint256"
        }
      ],
      "name": "deposit",
      "outputs": [],
      "stateMutability": "nonpayable",
      "type": "function"
    },
    {
      "inputs": [
        {
          "internalType": "address",
          "name": "tokenAddress",
          "type": "address"
        },
        {
          "internalType": "uint256",
          "name": "amount",
          "type": "uint256"
        }
      ],
      "name": "deposit_erc20",
      "outputs": [],
      "stateMutability": "nonpayable",
      "type": "function"
    },
    {
      "inputs": [],
      "name": "deposit_eth",
      "outputs": [],
      "stateMutability": "payable",
      "type": "function"
    },
    {
      "inputs": [
        {
          "internalType": "uint256",
          "name": "start",
          "type": "uint256"
        },
        {
          "internalType": "uint256",
          "name": "end",
          "type": "uint256"
        }
      ],
      "name": "getPendingRequests",
      "outputs": [
        {
          "components": [
            {
              "components": [
                {
                  "components": [
                    {
                      "internalType": "enum RollDown.Origin",
                      "name": "origin",
                      "type": "uint8"
                    },
                    {
                      "internalType": "uint256",
                      "name": "id",
                      "type": "uint256"
                    }
                  ],
                  "internalType": "struct RollDown.RequestId",
                  "name": "requestId",
                  "type": "tuple"
                },
                {
                  "internalType": "address",
                  "name": "depositRecipient",
                  "type": "address"
                },
                {
                  "internalType": "address",
                  "name": "tokenAddress",
                  "type": "address"
                },
                {
                  "internalType": "uint256",
                  "name": "amount",
                  "type": "uint256"
                },
                {
                  "internalType": "uint256",
                  "name": "timeStamp",
                  "type": "uint256"
                }
              ],
              "internalType": "struct RollDown.Deposit[]",
              "name": "pendingDeposits",
              "type": "tuple[]"
            },
            {
              "components": [
                {
                  "components": [
                    {
                      "internalType": "enum RollDown.Origin",
                      "name": "origin",
                      "type": "uint8"
                    },
                    {
                      "internalType": "uint256",
                      "name": "id",
                      "type": "uint256"
                    }
                  ],
                  "internalType": "struct RollDown.RequestId",
                  "name": "requestId",
                  "type": "tuple"
                },
                {
                  "internalType": "uint256",
                  "name": "l2RequestId",
                  "type": "uint256"
                },
                {
                  "internalType": "bool",
                  "name": "cancelJustified",
                  "type": "bool"
                },
                {
                  "internalType": "uint256",
                  "name": "timeStamp",
                  "type": "uint256"
                }
              ],
              "internalType": "struct RollDown.CancelResolution[]",
              "name": "pendingCancelResolutions",
              "type": "tuple[]"
            },
            {
              "components": [
                {
                  "components": [
                    {
                      "internalType": "enum RollDown.Origin",
                      "name": "origin",
                      "type": "uint8"
                    },
                    {
                      "internalType": "uint256",
                      "name": "id",
                      "type": "uint256"
                    }
                  ],
                  "internalType": "struct RollDown.RequestId",
                  "name": "requestId",
                  "type": "tuple"
                },
                {
                  "internalType": "uint256",
                  "name": "l2RequestId",
                  "type": "uint256"
                },
                {
                  "internalType": "bool",
                  "name": "status",
                  "type": "bool"
                },
                {
                  "internalType": "uint256",
                  "name": "timeStamp",
                  "type": "uint256"
                }
              ],
              "internalType": "struct RollDown.WithdrawalResolution[]",
              "name": "pendingWithdrawalResolutions",
              "type": "tuple[]"
            },
            {
              "components": [
                {
                  "components": [
                    {
                      "internalType": "enum RollDown.Origin",
                      "name": "origin",
                      "type": "uint8"
                    },
                    {
                      "internalType": "uint256",
                      "name": "id",
                      "type": "uint256"
                    }
                  ],
                  "internalType": "struct RollDown.RequestId",
                  "name": "requestId",
                  "type": "tuple"
                },
                {
                  "internalType": "uint256[]",
                  "name": "l2UpdatesToRemove",
                  "type": "uint256[]"
                },
                {
                  "internalType": "uint256",
                  "name": "timeStamp",
                  "type": "uint256"
                }
              ],
              "internalType": "struct RollDown.L2UpdatesToRemove[]",
              "name": "pendingL2UpdatesToRemove",
              "type": "tuple[]"
            }
          ],
          "internalType": "struct RollDown.L1Update",
          "name": "",
          "type": "tuple"
        }
      ],
      "stateMutability": "view",
      "type": "function"
    },
    {
      "inputs": [],
      "name": "getUpdateForL2",
      "outputs": [
        {
          "components": [
            {
              "components": [
                {
                  "components": [
                    {
                      "internalType": "enum RollDown.Origin",
                      "name": "origin",
                      "type": "uint8"
                    },
                    {
                      "internalType": "uint256",
                      "name": "id",
                      "type": "uint256"
                    }
                  ],
                  "internalType": "struct RollDown.RequestId",
                  "name": "requestId",
                  "type": "tuple"
                },
                {
                  "internalType": "address",
                  "name": "depositRecipient",
                  "type": "address"
                },
                {
                  "internalType": "address",
                  "name": "tokenAddress",
                  "type": "address"
                },
                {
                  "internalType": "uint256",
                  "name": "amount",
                  "type": "uint256"
                },
                {
                  "internalType": "uint256",
                  "name": "timeStamp",
                  "type": "uint256"
                }
              ],
              "internalType": "struct RollDown.Deposit[]",
              "name": "pendingDeposits",
              "type": "tuple[]"
            },
            {
              "components": [
                {
                  "components": [
                    {
                      "internalType": "enum RollDown.Origin",
                      "name": "origin",
                      "type": "uint8"
                    },
                    {
                      "internalType": "uint256",
                      "name": "id",
                      "type": "uint256"
                    }
                  ],
                  "internalType": "struct RollDown.RequestId",
                  "name": "requestId",
                  "type": "tuple"
                },
                {
                  "internalType": "uint256",
                  "name": "l2RequestId",
                  "type": "uint256"
                },
                {
                  "internalType": "bool",
                  "name": "cancelJustified",
                  "type": "bool"
                },
                {
                  "internalType": "uint256",
                  "name": "timeStamp",
                  "type": "uint256"
                }
              ],
              "internalType": "struct RollDown.CancelResolution[]",
              "name": "pendingCancelResolutions",
              "type": "tuple[]"
            },
            {
              "components": [
                {
                  "components": [
                    {
                      "internalType": "enum RollDown.Origin",
                      "name": "origin",
                      "type": "uint8"
                    },
                    {
                      "internalType": "uint256",
                      "name": "id",
                      "type": "uint256"
                    }
                  ],
                  "internalType": "struct RollDown.RequestId",
                  "name": "requestId",
                  "type": "tuple"
                },
                {
                  "internalType": "uint256",
                  "name": "l2RequestId",
                  "type": "uint256"
                },
                {
                  "internalType": "bool",
                  "name": "status",
                  "type": "bool"
                },
                {
                  "internalType": "uint256",
                  "name": "timeStamp",
                  "type": "uint256"
                }
              ],
              "internalType": "struct RollDown.WithdrawalResolution[]",
              "name": "pendingWithdrawalResolutions",
              "type": "tuple[]"
            },
            {
              "components": [
                {
                  "components": [
                    {
                      "internalType": "enum RollDown.Origin",
                      "name": "origin",
                      "type": "uint8"
                    },
                    {
                      "internalType": "uint256",
                      "name": "id",
                      "type": "uint256"
                    }
                  ],
                  "internalType": "struct RollDown.RequestId",
                  "name": "requestId",
                  "type": "tuple"
                },
                {
                  "internalType": "uint256[]",
                  "name": "l2UpdatesToRemove",
                  "type": "uint256[]"
                },
                {
                  "internalType": "uint256",
                  "name": "timeStamp",
                  "type": "uint256"
                }
              ],
              "internalType": "struct RollDown.L2UpdatesToRemove[]",
              "name": "pendingL2UpdatesToRemove",
              "type": "tuple[]"
            }
          ],
          "internalType": "struct RollDown.L1Update",
          "name": "",
          "type": "tuple"
        }
      ],
      "stateMutability": "view",
      "type": "function"
    },
    {
      "inputs": [],
      "name": "lastProcessedUpdate_origin_l1",
      "outputs": [
        {
          "internalType": "uint256",
          "name": "",
          "type": "uint256"
        }
      ],
      "stateMutability": "view",
      "type": "function"
    },
    {
      "inputs": [],
      "name": "lastProcessedUpdate_origin_l2",
      "outputs": [
        {
          "internalType": "uint256",
          "name": "",
          "type": "uint256"
        }
      ],
      "stateMutability": "view",
      "type": "function"
    },
    {
      "inputs": [
        {
          "internalType": "address",
          "name": "",
          "type": "address"
        }
      ],
      "name": "pendingEthWithdrawals",
      "outputs": [
        {
          "internalType": "uint256",
          "name": "",
          "type": "uint256"
        }
      ],
      "stateMutability": "view",
      "type": "function"
    },
    {
      "inputs": [
        {
          "components": [
            {
              "components": [
                {
                  "components": [
                    {
                      "internalType": "enum RollDown.Origin",
                      "name": "origin",
                      "type": "uint8"
                    },
                    {
                      "internalType": "uint256",
                      "name": "id",
                      "type": "uint256"
                    }
                  ],
                  "internalType": "struct RollDown.RequestId",
                  "name": "requestId",
                  "type": "tuple"
                },
                {
                  "components": [
                    {
                      "internalType": "uint256",
                      "name": "start",
                      "type": "uint256"
                    },
                    {
                      "internalType": "uint256",
                      "name": "end",
                      "type": "uint256"
                    }
                  ],
                  "internalType": "struct RollDown.Range",
                  "name": "range",
                  "type": "tuple"
                },
                {
                  "internalType": "bytes32",
                  "name": "hash",
                  "type": "bytes32"
                }
              ],
              "internalType": "struct RollDown.Cancel[]",
              "name": "cancels",
              "type": "tuple[]"
            },
            {
              "components": [
                {
                  "components": [
                    {
                      "internalType": "enum RollDown.Origin",
                      "name": "origin",
                      "type": "uint8"
                    },
                    {
                      "internalType": "uint256",
                      "name": "id",
                      "type": "uint256"
                    }
                  ],
                  "internalType": "struct RollDown.RequestId",
                  "name": "requestId",
                  "type": "tuple"
                },
                {
                  "internalType": "address",
                  "name": "withdrawalRecipient",
                  "type": "address"
                },
                {
                  "internalType": "address",
                  "name": "tokenAddress",
                  "type": "address"
                },
                {
                  "internalType": "uint256",
                  "name": "amount",
                  "type": "uint256"
                }
              ],
              "internalType": "struct RollDown.Withdrawal[]",
              "name": "withdrawals",
              "type": "tuple[]"
            },
            {
              "components": [
                {
                  "components": [
                    {
                      "internalType": "enum RollDown.Origin",
                      "name": "origin",
                      "type": "uint8"
                    },
                    {
                      "internalType": "uint256",
                      "name": "id",
                      "type": "uint256"
                    }
                  ],
                  "internalType": "struct RollDown.RequestId",
                  "name": "requestId",
                  "type": "tuple"
                },
                {
                  "internalType": "uint256",
                  "name": "originRequestId",
                  "type": "uint256"
                },
                {
                  "internalType": "enum RollDown.UpdateType",
                  "name": "updateType",
                  "type": "uint8"
                },
                {
                  "internalType": "bool",
                  "name": "status",
                  "type": "bool"
                }
              ],
              "internalType": "struct RollDown.RequestResult[]",
              "name": "results",
              "type": "tuple[]"
            }
          ],
          "internalType": "struct RollDown.L2Update",
          "name": "inputArray",
          "type": "tuple"
        }
      ],
      "name": "update_l1_from_l2",
      "outputs": [],
      "stateMutability": "nonpayable",
      "type": "function"
    },
    {
      "inputs": [
        {
          "internalType": "uint256",
          "name": "amount",
          "type": "uint256"
        }
      ],
      "name": "withdraw_pending_eth",
      "outputs": [],
      "stateMutability": "nonpayable",
      "type": "function"
    },
    {
      "inputs": [
        {
          "internalType": "uint256",
          "name": "",
          "type": "uint256"
        }
      ],
      "name": "withdrawalResolutions",
      "outputs": [
        {
          "components": [
            {
              "internalType": "enum RollDown.Origin",
              "name": "origin",
              "type": "uint8"
            },
            {
              "internalType": "uint256",
              "name": "id",
              "type": "uint256"
            }
          ],
          "internalType": "struct RollDown.RequestId",
          "name": "requestId",
          "type": "tuple"
        },
        {
          "internalType": "uint256",
          "name": "l2RequestId",
          "type": "uint256"
        },
        {
          "internalType": "bool",
          "name": "status",
          "type": "bool"
        },
        {
          "internalType": "uint256",
          "name": "timeStamp",
          "type": "uint256"
        }
      ],
      "stateMutability": "view",
      "type": "function"
    }
  ],
  "bytecode": {
    "object": "0x608060405234801561001057600080fd5b506000600281905560018055600381905580546001600160a01b03191633179055612bd2806100406000396000f3fe6080604052600436106100dd5760003560e01c806380bc280c1161007f578063b153870611610059578063b153870614610255578063ca9b21ae1461026a578063d16544f01461028a578063f26ee9d0146102aa57600080fd5b806380bc280c146101d8578063a7acab4614610205578063a80fc9bd1461022557600080fd5b80635740b89d116100bb5780635740b89d1461015157806361bc221a1461017157806379e041f2146101955780637fd4f845146101c257600080fd5b80631878d1f1146100e2578063274b3df41461012757806347e7ef2414610131575b600080fd5b3480156100ee57600080fd5b5061010a73574839586746383753739573937593749373345781565b6040516001600160a01b0390911681526020015b60405180910390f35b61012f6102c0565b005b34801561013d57600080fd5b5061012f61014c366004612580565b610496565b34801561015d57600080fd5b5061012f61016c3660046125aa565b6104a4565b34801561017d57600080fd5b5061018760015481565b60405190815260200161011e565b3480156101a157600080fd5b506101b56101b03660046125e5565b6106f7565b60405161011e91906127a3565b3480156101ce57600080fd5b5061018760025481565b3480156101e457600080fd5b506101876101f336600461288e565b60086020526000908152604090205481565b34801561021157600080fd5b5061012f6102203660046128a9565b610d84565b34801561023157600080fd5b506102456102403660046128a9565b610eff565b60405161011e94939291906128c2565b34801561026157600080fd5b506101b5610f71565b34801561027657600080fd5b506102456102853660046128a9565b610fc1565b34801561029657600080fd5b5061012f6102a5366004612580565b610ff6565b3480156102b657600080fd5b5061018760035481565b600034116103155760405162461bcd60e51b815260206004820181905260248201527f6d73672076616c7565206d75737420626520677265617465722074686174203060448201526064015b60405180910390fd5b6040805160e081019091523390349042906000908060a08101808481526020016001600081548092919061034890612901565b90915550905281526001600160a01b038616602080830191909152735748395867463837537395739375937493733457604080840191909152606083018790526080909201859052825181015160009081526006909152208151805182549394508493839190829060ff1916600183818111156103c7576103c7612607565b021790555060209182015160019190910155828101516002830180546001600160a01b03199081166001600160a01b03938416179091556040808601516003860180549093169084161790915560608086015160048601556080958601516005909501949094558551830151815190815291891692820192909252735748395867463837537395739375937493733457918101919091529081018590527fe28491c2da97a9923c92f6590a040dfc143fe636e8545356cdab0a796e1acefa91015b60405180910390a150505050565b6104a08282610ff6565b5050565b60016104b3604083018361291a565b90501015806104ce575060016104c9828061291a565b905010155b806104e8575060016104e3602083018361291a565b905010155b61053e5760405162461bcd60e51b815260206004820152602160248201527f4172726179206d7573742068617665206174206c6561737420312075706461746044820152606560f81b606482015260840161030c565b60008061054a836112a1565b915091508160000361056e5760405162461bcd60e51b815260040161030c9061296a565b60035461057c906001612994565b82111561059b5760405162461bcd60e51b815260040161030c9061296a565b60035481116105bc5760405162461bcd60e51b815260040161030c9061296a565b60006105c883856113d7565b905060006105e2826105dd604088018861291a565b611751565b90506105ee8286611a19565b8051156106f057600180546000918261060683612901565b909155506040805160a08101909152909150806060810180600081526020908101859052908252818101859052426040928301526000848152600790915220815180518254839190829060ff19166001838181111561066757610667612607565b021790555060209182015160019091015582810151805161068e9260028501920190612504565b50604082015181600301559050508151600260008282546106af9190612994565b90915550506040517f09b30365986269e3939307e7ca7b7b7421a8ad08ef18bb766c668d27cbc2aef9906106e690839085906129a7565b60405180910390a1505b5050505050565b6107226040518060800160405280606081526020016060815260200160608152602001606081525090565b61074d6040518060800160405280606081526020016060815260200160608152602001606081525090565b6000808080875b87811161080d5760008181526006602052604090206001015415610784578461077c81612901565b9550506107fb565b600081815260076020526040902060010154156107ad57816107a581612901565b9250506107fb565b600081815260046020526040902060010154156107d657836107ce81612901565b9450506107fb565b600081815260056020526040902060010154156107fb57826107f781612901565b9350505b8061080581612901565b915050610754565b508367ffffffffffffffff811115610827576108276129c8565b60405190808252806020026020018201604052801561088d57816020015b6040805160e081018252600060a0820181815260c083018290528252602080830182905292820181905260608201819052608082015282526000199092019101816108455790505b5085528167ffffffffffffffff8111156108a9576108a96129c8565b60405190808252806020026020018201604052801561090857816020015b6040805160c08101825260006080820181815260a0830182905282526020808301829052928201819052606082015282526000199092019101816108c75790505b5060208601528267ffffffffffffffff811115610927576109276129c8565b60405190808252806020026020018201604052801561098657816020015b6040805160c08101825260006080820181815260a0830182905282526020808301829052928201819052606082015282526000199092019101816109455790505b5060408601528067ffffffffffffffff8111156109a5576109a56129c8565b6040519080825280602002602001820160405280156109ff57816020015b6040805160a081018252600060608083018281526080840183905283526020830152918101919091528152602001906001900390816109c35790505b506060860152506000925082915081905080875b878111610d755760008181526006602052604090206001015415610af45760008181526006602052604090819020815160e081019092528054829060a08201908390829060ff166001811115610a6b57610a6b612607565b6001811115610a7c57610a7c612607565b81526001919091015460209182015290825260028301546001600160a01b0390811691830191909152600383015416604082015260048201546060820152600590910154608090910152865186610ad281612901565b975081518110610ae457610ae46129de565b6020026020010181905250610d63565b60008181526004602052604090206001015415610baf5760008181526004602052604090819020815160c081019092528054829060808201908390829060ff166001811115610b4557610b45612607565b6001811115610b5657610b56612607565b815260019190910154602091820152908252600283015490820152600382015460ff16151560408083019190915260049092015460609091015287015185610b9d81612901565b965081518110610ae457610ae46129de565b60008181526007602052604090206001015415610ca75760008181526007602052604090819020815160a081019092528054829060608201908390829060ff166001811115610c0057610c00612607565b6001811115610c1157610c11612607565b8152602001600182015481525050815260200160028201805480602002602001604051908101604052809291908181526020018280548015610c7257602002820191906000526020600020905b815481526020019060010190808311610c5e575b5050505050815260200160038201548152505086606001518380610c9590612901565b945081518110610ae457610ae46129de565b60008181526005602052604090206002015415610d5e5760008181526005602052604090819020815160c081019092528054829060808201908390829060ff166001811115610cf857610cf8612607565b6001811115610d0957610d09612607565b815260019190910154602091820152908252600283015482820152600383015460ff161515604083015260049092015460609091015287015184610d4c81612901565b955081518110610ae457610ae46129de565b610d75565b80610d6d81612901565b915050610a13565b50939450505050505b92915050565b60008111610dd45760405162461bcd60e51b815260206004820181905260248201527f416d6f756e74206d7573742062652067726561746572207468616e207a65726f604482015260640161030c565b33600081815260086020526040902054821115610e3e5760405162461bcd60e51b815260206004820152602260248201527f6e6f7420656e6f7567682070656e64696e6720776974686472617720616d6f756044820152611b9d60f21b606482015260840161030c565b3031821115610e865760405162461bcd60e51b81526020600482015260146024820152736e6f7420656e6f756768206574682066756e647360601b604482015260640161030c565b6001600160a01b03811660009081526008602052604081208054849290610eae9084906129f4565b9091555050604080516001600160a01b0383168152602081018490527f74b13e26477934df4349c96042c16ffb2ec5e0f902cdf60e4755711cd460ce99910160405180910390a16104a08183611c16565b60046020526000908152604090819020815180830190925280549091908290829060ff166001811115610f3457610f34612607565b6001811115610f4557610f45612607565b815260019190910154602090910152600282015460038301546004909301549192909160ff9091169084565b610f9c6040518060800160405280606081526020016060815260200160608152602001606081525090565b610fbc6002546001610fae9190612994565b600180546101b091906129f4565b905090565b60056020526000908152604090819020815180830190925280549091908290829060ff166001811115610f3457610f34612607565b6001600160a01b0382166110445760405162461bcd60e51b8152602060048201526015602482015274496e76616c696420746f6b656e206164647265737360581b604482015260640161030c565b600081116110945760405162461bcd60e51b815260206004820181905260248201527f416d6f756e74206d7573742062652067726561746572207468616e207a65726f604482015260640161030c565b6040516323b872dd60e01b81523360048201819052306024830152604482018390529083906001600160a01b038216906323b872dd906064016020604051808303816000875af11580156110ec573d6000803e3d6000fd5b505050506040513d601f19601f820116820180604052508101906111109190612a15565b6111545760405162461bcd60e51b8152602060048201526015602482015274151bdad95b881d1c985b9cd9995c8819985a5b1959605a1b604482015260640161030c565b6040805160e0810190915242906000908060a08101808481526020016001600081548092919061118390612901565b90915550905281526001600160a01b03808716602080840191909152908916604080840191909152606083018990526080909201859052825181015160009081526006909152208151805182549394508493839190829060ff1916600183818111156111f1576111f1612607565b021790555060209182015160019190910155828101516002830180546001600160a01b03199081166001600160a01b03938416179091556040808601516003860180549093169084161790915560608086015160048601556080958601516005909501949094558551830151815190815289831693810193909352908a16908201529081018790527fe28491c2da97a9923c92f6590a040dfc143fe636e8545356cdab0a796e1acefa91016106e6565b60008060001981806112b3868061291a565b90501115611337576112ec6112c8868061291a565b60008181106112d9576112d96129de565b905060a002016000016020013583611cb2565b91506113346112fb868061291a565b6001611307898061291a565b6113129291506129f4565b818110611321576113216129de565b905060a002016000016020013582611cc8565b90505b6000611346602087018761291a565b905011156113825761135e6112c8602087018761291a565b915061137f611370602087018761291a565b600161130760208a018a61291a565b90505b6000611391604087018761291a565b905011156113cd576113a96112c8604087018761291a565b91506113ca6113bb604087018761291a565b600161130760408a018a61291a565b90505b9094909350915050565b60606113e6604083018361291a565b15905080156113fe57506113fa828061291a565b1590505b80156114165750611412602083018361291a565b1590505b156114305750604080516000815260208101909152610d7e565b600080808080611443604088018861291a565b9050611452602089018961291a565b905061145e898061291a565b611469929150612994565b6114739190612994565b905060008167ffffffffffffffff811115611490576114906129c8565b6040519080825280602002602001820160405280156114b9578160200160208202803683370190505b509050885b6114c8838b612994565b811015611744576114dc60208a018a61291a565b9050871080156115145750806114f560208b018b61291a565b89818110611505576115056129de565b905060a0020160000160200135145b1561157c57600182858151811061152d5761152d6129de565b6020026020010190600581111561154657611546612607565b9081600581111561155957611559612607565b9052508661156681612901565b975050838061157490612901565b945050611732565b611586898061291a565b9050861080156115bb57508061159c8a8061291a565b888181106115ac576115ac6129de565b905060a0020160000160200135145b1561161b5760048285815181106115d4576115d46129de565b602002602001019060058111156115ed576115ed612607565b9081600581111561160057611600612607565b9052508561160d81612901565b965050838061157490612901565b61162860408a018a61291a565b90508510801561166057508061164160408b018b61291a565b87818110611651576116516129de565b905060a0020160000160200135145b156116c0576003828581518110611679576116796129de565b6020026020010190600581111561169257611692612607565b908160058111156116a5576116a5612607565b905250846116b281612901565b955050838061157490612901565b6116f6604051806040016040528060158152602001743932b8bab2b9ba39903737ba1034b71037b93232b960591b815250611cd7565b60405162461bcd60e51b8152602060048201526011602482015270696e76616c696465204c3255706461746560781b604482015260640161030c565b8061173c81612901565b9150506114be565b5098975050505050505050565b606060008290036117715750604080516000815260208101909152611a12565b6000808367ffffffffffffffff81111561178d5761178d6129c8565b6040519080825280602002602001820160405280156117b6578160200160208202803683370190505b5090506000805b875181101561196f5760038882815181106117da576117da6129de565b602002602001015160058111156117f3576117f3612607565b0361195d57600087878461180681612901565b9550818110611817576118176129de565b905060a0020180360381019061182d9190612aa5565b905060035481600001516020015111611846575061195d565b60008160400151600581111561185e5761185e612607565b148061187f575060038160400151600581111561187d5761187d612607565b145b8061189f575060058160400151600581111561189d5761189d612607565b145b806118bf57506002816040015160058111156118bd576118bd612607565b145b1561191c57602081015184866118d481612901565b9750815181106118e6576118e66129de565b602090810291909101015260008160400151600581111561190957611909612607565b036119175761191781611d1d565b61195b565b60405162461bcd60e51b8152602060048201526014602482015273756e6b6e6f776e2072657175657374207479706560601b604482015260640161030c565b505b8061196781612901565b9150506117bd565b5060008367ffffffffffffffff81111561198b5761198b6129c8565b6040519080825280602002602001820160405280156119b4578160200160208202803683370190505b50905060005b84811015611a0b578381815181106119d4576119d46129de565b60200260200101518282815181106119ee576119ee6129de565b602090810291909101015280611a0381612901565b9150506119ba565b5093505050505b9392505050565b6000806000805b8551811015611c0e576001868281518110611a3d57611a3d6129de565b60200260200101516005811115611a5657611a56612607565b03611ac65736611a69602087018761291a565b85611a7381612901565b9650818110611a8457611a846129de565b905060a002019050600354816000016020013511611aa25750611bfc565b611aab81611ea4565b60038054906000611abb83612901565b919050555050611bfc565b6004868281518110611ada57611ada6129de565b60200260200101516005811115611af357611af3612607565b03611b455736611b03868061291a565b86611b0d81612901565b9750818110611b1e57611b1e6129de565b905060a002019050600354816000016020013511611b3c5750611bfc565b611aab81611ee9565b6003868281518110611b5957611b596129de565b60200260200101516005811115611b7257611b72612607565b03611bbe5736611b85604087018761291a565b84611b8f81612901565b9550818110611ba057611ba06129de565b905060a002019050600354816000016020013511611aab5750611bfc565b60405162461bcd60e51b8152602060048201526013602482015272756e6b6e6f776e20757064617465207479706560681b604482015260640161030c565b80611c0681612901565b915050611a20565b505050505050565b80471015611c395760405163cd78605960e01b815230600482015260240161030c565b6000826001600160a01b03168260405160006040518083038185875af1925050503d8060008114611c86576040519150601f19603f3d011682016040523d82523d6000602084013e611c8b565b606091505b5050905080611cad57604051630a12f52160e11b815260040160405180910390fd5b505050565b6000818310611cc15781611a12565b5090919050565b6000818311611cc15781611a12565b611d1a81604051602401611ceb9190612b35565b60408051601f198184030181529190526020810180516001600160e01b031663104c13eb60e21b179052612049565b50565b8060600151611d1a578051602090810151600081815260069092526040808320815160e081019092528054929392829060a08201908390829060ff166001811115611d6a57611d6a612607565b6001811115611d7b57611d7b612607565b81526001919091015460209182015290825260028301546001600160a01b039081168383015260038401548116604080850191909152600480860154606080870191909152600590960154608090950194909452858101519286015194860151905163a9059cbb60e01b815294821693850193909352602484019290925292935082169063a9059cbb906044016020604051808303816000875af1158015611e27573d6000803e3d6000fd5b505050506040513d601f19601f82011682018060405250810190611e4b9190612a15565b5060208083015160408085015160608087015183516001600160a01b0395861681529490921694840194909452908201527fd94415916610c60b0e0e439fd308b171a6e28fad608830cf17f14ff5928e22799101610488565b735748395867463837537395739375937493733457611ec9608083016060840161288e565b6001600160a01b031603611ee057611d1a8161206a565b611d1a81612265565b6000611efd604083013560608401356106f7565b9050600081604051602001611f1291906127a3565b60408051601f19818403018152828252805160209091012060c083019091529150429060009080608081018084815260200160016000815480929190611f5790612901565b909155509052815260208781013581830152608088013586146040808401919091526060909201859052825181015160009081526005909152208151805182549394508493839190829060ff191660018381811115611fb857611fb8612607565b021790555060209182015160019091015582810151600283015560408084015160038401805491151560ff199092169190911790556060909301516004909201919091558201518282015191517fd16f202ac5905ff5d1851f4805ffe56d1212db32fa989881d0044b9cf0f727769261203a9282521515602082015260400190565b60405180910390a15050505050565b80516a636f6e736f6c652e6c6f67602083016000808483855afa5050505050565b6040805160c0810190915260808083013530311015914291600091908190810180848152602001600160008154809291906120a490612901565b9091555090528152602086810135818301528515156040808401919091526060909201859052825181015160009081526004909152208151805182549394508493839190829060ff19166001838181111561210157612101612607565b02179055506020918201516001919091015582810151600283015560408084015160038401805460ff191691151591909117905560609093015160049092019190915582518101518251908152851515918101919091527f0c4873525770dbb64515e9d3950131f79ed8f72ff147ff1723bbe2e77e3791aa910160405180910390a1821561225f576080840135600860006121a2606088016040890161288e565b6001600160a01b03166001600160a01b0316815260200190815260200160002060008282546121d19190612994565b909155507fe40f985f6a88d7d060348dc647fb85bb6365eee1437a753cd67141bc3eda8fa99050612208606086016040870161288e565b6008600061221c6060890160408a0161288e565b6001600160a01b03166001600160a01b03168152602001908152602001600020546040516104889291906001600160a01b03929092168252602082015260400190565b50505050565b6000612277608083016060840161288e565b6040516370a0823160e01b81523060048201529091506000906080840135906001600160a01b038416906370a0823190602401602060405180830381865afa1580156122c7573d6000803e3d6000fd5b505050506040513d601f19601f820116820180604052508101906122eb9190612b83565b6040805160c08101909152911115915042906000908060808101808481526020016001600081548092919061231f90612901565b9091555090528152602087810135818301528515156040808401919091526060909201859052825181015160009081526004909152208151805182549394508493839190829060ff19166001838181111561237c5761237c612607565b02179055506020918201516001919091015582810151600283015560408084015160038401805460ff191691151591909117905560609093015160049092019190915582518101518251908152851515918101919091527f0c4873525770dbb64515e9d3950131f79ed8f72ff147ff1723bbe2e77e3791aa910160405180910390a182156106f0576001600160a01b03841663a9059cbb612423606088016040890161288e565b6040516001600160e01b031960e084901b1681526001600160a01b039091166004820152608088013560248201526044016020604051808303816000875af1158015612473573d6000803e3d6000fd5b505050506040513d601f19601f820116820180604052508101906124979190612a15565b507fa92ff919b850e4909ab2261d907ef955f11bc1716733a6cbece38d163a69af8a6124c9606087016040880161288e565b6124d9608088016060890161288e565b604080516001600160a01b03938416815292909116602083015260808801359082015260600161203a565b82805482825590600052602060002090810192821561253f579160200282015b8281111561253f578251825591602001919060010190612524565b5061254b92915061254f565b5090565b5b8082111561254b5760008155600101612550565b80356001600160a01b038116811461257b57600080fd5b919050565b6000806040838503121561259357600080fd5b61259c83612564565b946020939093013593505050565b6000602082840312156125bc57600080fd5b813567ffffffffffffffff8111156125d357600080fd5b820160608185031215611a1257600080fd5b600080604083850312156125f857600080fd5b50508035926020909101359150565b634e487b7160e01b600052602160045260246000fd5b80516002811061263d57634e487b7160e01b600052602160045260246000fd5b8252602090810151910152565b61265582825161261d565b60208101516040830152604081015115156060830152606081015160808301525050565b600081518084526020808501945080840160005b838110156126b3576126a087835161264a565b60a096909601959082019060010161268d565b509495945050505050565b600081518084526020808501945080840160005b838110156126b3576126e587835161264a565b60a09690960195908201906001016126d2565b600081518084526020808501945080840160005b838110156126b35781518752958201959082019060010161270c565b6000815180845260208085019450848260051b860182860160005b858110156127965783830389528151608061275f85835161261d565b8682015160408281880152612776838801836126f8565b930151606096909601959095525098850198925090840190600101612743565b5090979650505050505050565b6000602080835260a080840185516080808588015282825180855260c094508489019150868401935060005b818110156128275784516127e484825161261d565b808901516001600160a01b0390811660408681019190915282015116606080860191909152810151858501528401518784015293870193918501916001016127cf565b5050858901519550601f199450848882030160408901526128488187612679565b955050604088015192508387860301606088015261286685846126be565b94506060880151925083878603018188015250506128848382612728565b9695505050505050565b6000602082840312156128a057600080fd5b611a1282612564565b6000602082840312156128bb57600080fd5b5035919050565b60a081016128d0828761261d565b60408201949094529115156060830152608090910152919050565b634e487b7160e01b600052601160045260246000fd5b600060018201612913576129136128eb565b5060010190565b6000808335601e1984360301811261293157600080fd5b83018035915067ffffffffffffffff82111561294c57600080fd5b602001915060a08102360382131561296357600080fd5b9250929050565b60208082526010908201526f496e76616c6964204c3255706461746560801b604082015260600190565b80820180821115610d7e57610d7e6128eb565b8281526040602082015260006129c060408301846126f8565b949350505050565b634e487b7160e01b600052604160045260246000fd5b634e487b7160e01b600052603260045260246000fd5b81810381811115610d7e57610d7e6128eb565b8015158114611d1a57600080fd5b600060208284031215612a2757600080fd5b8151611a1281612a07565b6040516080810167ffffffffffffffff81118282101715612a6357634e487b7160e01b600052604160045260246000fd5b60405290565b6040805190810167ffffffffffffffff81118282101715612a6357634e487b7160e01b600052604160045260246000fd5b803561257b81612a07565b600081830360a0811215612ab857600080fd5b612ac0612a32565b6040821215612ace57600080fd5b612ad6612a69565b9150833560028110612ae757600080fd5b8083525060208401356020830152818152604084013560208201526060840135915060068210612b1657600080fd5b816040820152612b2860808501612a9a565b6060820152949350505050565b600060208083528351808285015260005b81811015612b6257858101830151858201604001528201612b46565b506000604082860101526040601f19601f8301168501019250505092915050565b600060208284031215612b9557600080fd5b505191905056fea26469706673582212204448f69e735a57b8904b33c2ca31ee57583d1f3ed53216e0ee3853dad3e66cca64736f6c63430008140033",
    "linkReferences": {}
  },
  "methodIdentifiers": {
    "ETH_TOKEN_ADDRESS()": "1878d1f1",
    "cancelResolutions(uint256)": "ca9b21ae",
    "counter()": "61bc221a",
    "deposit(address,uint256)": "47e7ef24",
    "deposit_erc20(address,uint256)": "d16544f0",
    "deposit_eth()": "274b3df4",
    "getPendingRequests(uint256,uint256)": "79e041f2",
    "getUpdateForL2()": "b1538706",
    "lastProcessedUpdate_origin_l1()": "7fd4f845",
    "lastProcessedUpdate_origin_l2()": "f26ee9d0",
    "pendingEthWithdrawals(address)": "80bc280c",
    "update_l1_from_l2((((uint8,uint256),(uint256,uint256),bytes32)[],((uint8,uint256),address,address,uint256)[],((uint8,uint256),uint256,uint8,bool)[]))": "5740b89d",
    "withdraw_pending_eth(uint256)": "a7acab46",
    "withdrawalResolutions(uint256)": "a80fc9bd"
  },
  "id": 22
}