{
  "abi": [
    {
      "anonymous": false,
      "inputs": [
        {
          "indexed": false,
          "internalType": "uint256",
          "name": "requestId",
          "type": "uint256"
        },
        {
          "indexed": false,
          "internalType": "address",
          "name": "depositRecipient",
          "type": "address"
        },
        {
          "indexed": false,
          "internalType": "address",
          "name": "tokenAddress",
          "type": "address"
        },
        {
          "indexed": false,
          "internalType": "uint256",
          "name": "amount",
          "type": "uint256"
        }
      ],
      "name": "DepositAcceptedIntoQueue",
      "type": "event"
    },
    {
      "anonymous": false,
      "inputs": [
        {
          "indexed": false,
          "internalType": "uint256",
          "name": "requestId",
          "type": "uint256"
        },
        {
          "indexed": false,
          "internalType": "bool",
          "name": "cancelJustified",
          "type": "bool"
        }
      ],
      "name": "DisputeResolutionAcceptedIntoQueue",
      "type": "event"
    },
    {
      "anonymous": false,
      "inputs": [
        {
          "indexed": false,
          "internalType": "address",
          "name": "sender",
          "type": "address"
        },
        {
          "indexed": false,
          "internalType": "uint256",
          "name": "amount",
          "type": "uint256"
        }
      ],
      "name": "EthWithdrawPending",
      "type": "event"
    },
    {
      "anonymous": false,
      "inputs": [
        {
          "indexed": false,
          "internalType": "address",
          "name": "depositRecipient",
          "type": "address"
        },
        {
          "indexed": false,
          "internalType": "address",
          "name": "tokenAddress",
          "type": "address"
        },
        {
          "indexed": false,
          "internalType": "uint256",
          "name": "amount",
          "type": "uint256"
        }
      ],
      "name": "FundsReturned",
      "type": "event"
    },
    {
      "anonymous": false,
      "inputs": [
        {
          "indexed": false,
          "internalType": "address",
          "name": "withdrawRecipient",
          "type": "address"
        },
        {
          "indexed": false,
          "internalType": "address",
          "name": "tokenAddress",
          "type": "address"
        },
        {
          "indexed": false,
          "internalType": "uint256",
          "name": "amount",
          "type": "uint256"
        }
      ],
      "name": "FundsWithdrawn",
      "type": "event"
    },
    {
      "anonymous": false,
      "inputs": [
        {
          "indexed": false,
          "internalType": "uint8",
          "name": "version",
          "type": "uint8"
        }
      ],
      "name": "Initialized",
      "type": "event"
    },
    {
      "anonymous": false,
      "inputs": [
        {
          "indexed": false,
          "internalType": "uint256",
          "name": "requestId",
          "type": "uint256"
        },
        {
          "indexed": false,
          "internalType": "uint256[]",
          "name": "l2UpdatesToRemove",
          "type": "uint256[]"
        }
      ],
      "name": "L2UpdatesToRemovedAcceptedIntoQueue",
      "type": "event"
    },
    {
      "anonymous": false,
      "inputs": [
        {
          "indexed": false,
          "internalType": "address",
          "name": "updater",
          "type": "address"
        }
      ],
      "name": "NewUpdaterSet",
      "type": "event"
    },
    {
      "anonymous": false,
      "inputs": [
        {
          "indexed": true,
          "internalType": "address",
          "name": "previousOwner",
          "type": "address"
        },
        {
          "indexed": true,
          "internalType": "address",
          "name": "newOwner",
          "type": "address"
        }
      ],
      "name": "OwnershipTransferred",
      "type": "event"
    },
    {
      "anonymous": false,
      "inputs": [
        {
          "indexed": true,
          "internalType": "address",
          "name": "account",
          "type": "address"
        },
        {
          "indexed": false,
          "internalType": "uint256",
          "name": "newPausedStatus",
          "type": "uint256"
        }
      ],
      "name": "Paused",
      "type": "event"
    },
    {
      "anonymous": false,
      "inputs": [
        {
          "indexed": false,
          "internalType": "contract IPauserRegistry",
          "name": "pauserRegistry",
          "type": "address"
        },
        {
          "indexed": false,
          "internalType": "contract IPauserRegistry",
          "name": "newPauserRegistry",
          "type": "address"
        }
      ],
      "name": "PauserRegistrySet",
      "type": "event"
    },
    {
      "anonymous": false,
      "inputs": [
        {
          "indexed": false,
          "internalType": "address",
          "name": "sender",
          "type": "address"
        },
        {
          "indexed": false,
          "internalType": "uint256",
          "name": "amount",
          "type": "uint256"
        }
      ],
      "name": "PendingEthWithdrawn",
      "type": "event"
    },
    {
      "anonymous": false,
      "inputs": [
        {
          "indexed": true,
          "internalType": "address",
          "name": "account",
          "type": "address"
        },
        {
          "indexed": false,
          "internalType": "uint256",
          "name": "newPausedStatus",
          "type": "uint256"
        }
      ],
      "name": "Unpaused",
      "type": "event"
    },
    {
      "anonymous": false,
      "inputs": [
        {
          "indexed": false,
          "internalType": "uint256",
          "name": "requestId",
          "type": "uint256"
        },
        {
          "indexed": false,
          "internalType": "bool",
          "name": "success",
          "type": "bool"
        }
      ],
      "name": "WithdrawalResolutionAcceptedIntoQueue",
      "type": "event"
    },
    {
      "anonymous": false,
      "inputs": [
        {
          "indexed": false,
          "internalType": "bytes32",
          "name": "cancelHash",
          "type": "bytes32"
        },
        {
          "indexed": false,
          "internalType": "bytes32",
          "name": "calculatedHash",
          "type": "bytes32"
        }
      ],
      "name": "cancelAndCalculatedHash",
      "type": "event"
    },
    {
      "inputs": [],
      "name": "ETH_TOKEN_ADDRESS",
      "outputs": [
        {
          "internalType": "address",
          "name": "",
          "type": "address"
        }
      ],
      "stateMutability": "view",
      "type": "function"
    },
    {
      "inputs": [
        {
          "internalType": "uint256",
          "name": "",
          "type": "uint256"
        }
      ],
      "name": "cancelResolutions",
      "outputs": [
        {
          "components": [
            {
              "internalType": "enum IRolldownPrimitives.Origin",
              "name": "origin",
              "type": "uint8"
            },
            {
              "internalType": "uint256",
              "name": "id",
              "type": "uint256"
            }
          ],
          "internalType": "struct IRolldownPrimitives.RequestId",
          "name": "requestId",
          "type": "tuple"
        },
        {
          "internalType": "uint256",
          "name": "l2RequestId",
          "type": "uint256"
        },
        {
          "internalType": "bool",
          "name": "cancelJustified",
          "type": "bool"
        },
        {
          "internalType": "uint256",
          "name": "timeStamp",
          "type": "uint256"
        }
      ],
      "stateMutability": "view",
      "type": "function"
    },
    {
      "inputs": [],
      "name": "chain",
      "outputs": [
        {
          "internalType": "enum IRolldownPrimitives.ChainId",
          "name": "",
          "type": "uint8"
        }
      ],
      "stateMutability": "view",
      "type": "function"
    },
    {
      "inputs": [],
      "name": "counter",
      "outputs": [
        {
          "internalType": "uint256",
          "name": "",
          "type": "uint256"
        }
      ],
      "stateMutability": "view",
      "type": "function"
    },
    {
      "inputs": [
        {
          "internalType": "address",
          "name": "tokenAddress",
          "type": "address"
        },
        {
          "internalType": "uint256",
          "name": "amount",
          "type": "uint256"
        }
      ],
      "name": "deposit",
      "outputs": [],
      "stateMutability": "nonpayable",
      "type": "function"
    },
    {
      "inputs": [
        {
          "internalType": "address",
          "name": "tokenAddress",
          "type": "address"
        },
        {
          "internalType": "uint256",
          "name": "amount",
          "type": "uint256"
        }
      ],
      "name": "deposit_erc20",
      "outputs": [],
      "stateMutability": "nonpayable",
      "type": "function"
    },
    {
      "inputs": [],
      "name": "deposit_eth",
      "outputs": [],
      "stateMutability": "payable",
      "type": "function"
    },
    {
      "inputs": [
        {
          "internalType": "uint256",
          "name": "start",
          "type": "uint256"
        },
        {
          "internalType": "uint256",
          "name": "end",
          "type": "uint256"
        }
      ],
      "name": "getPendingRequests",
      "outputs": [
        {
          "components": [
            {
              "internalType": "enum IRolldownPrimitives.ChainId",
              "name": "chain",
              "type": "uint8"
            },
            {
              "components": [
                {
                  "components": [
                    {
                      "internalType": "enum IRolldownPrimitives.Origin",
                      "name": "origin",
                      "type": "uint8"
                    },
                    {
                      "internalType": "uint256",
                      "name": "id",
                      "type": "uint256"
                    }
                  ],
                  "internalType": "struct IRolldownPrimitives.RequestId",
                  "name": "requestId",
                  "type": "tuple"
                },
                {
                  "internalType": "address",
                  "name": "depositRecipient",
                  "type": "address"
                },
                {
                  "internalType": "address",
                  "name": "tokenAddress",
                  "type": "address"
                },
                {
                  "internalType": "uint256",
                  "name": "amount",
                  "type": "uint256"
                },
                {
                  "internalType": "uint256",
                  "name": "timeStamp",
                  "type": "uint256"
                }
              ],
              "internalType": "struct IRolldownPrimitives.Deposit[]",
              "name": "pendingDeposits",
              "type": "tuple[]"
            },
            {
              "components": [
                {
                  "components": [
                    {
                      "internalType": "enum IRolldownPrimitives.Origin",
                      "name": "origin",
                      "type": "uint8"
                    },
                    {
                      "internalType": "uint256",
                      "name": "id",
                      "type": "uint256"
                    }
                  ],
                  "internalType": "struct IRolldownPrimitives.RequestId",
                  "name": "requestId",
                  "type": "tuple"
                },
                {
                  "internalType": "uint256",
                  "name": "l2RequestId",
                  "type": "uint256"
                },
                {
                  "internalType": "bool",
                  "name": "cancelJustified",
                  "type": "bool"
                },
                {
                  "internalType": "uint256",
                  "name": "timeStamp",
                  "type": "uint256"
                }
              ],
              "internalType": "struct IRolldownPrimitives.CancelResolution[]",
              "name": "pendingCancelResolutions",
              "type": "tuple[]"
            },
            {
              "components": [
                {
                  "components": [
                    {
                      "internalType": "enum IRolldownPrimitives.Origin",
                      "name": "origin",
                      "type": "uint8"
                    },
                    {
                      "internalType": "uint256",
                      "name": "id",
                      "type": "uint256"
                    }
                  ],
                  "internalType": "struct IRolldownPrimitives.RequestId",
                  "name": "requestId",
                  "type": "tuple"
                },
                {
                  "internalType": "uint256",
                  "name": "l2RequestId",
                  "type": "uint256"
                },
                {
                  "internalType": "bool",
                  "name": "status",
                  "type": "bool"
                },
                {
                  "internalType": "uint256",
                  "name": "timeStamp",
                  "type": "uint256"
                }
              ],
              "internalType": "struct IRolldownPrimitives.WithdrawalResolution[]",
              "name": "pendingWithdrawalResolutions",
              "type": "tuple[]"
            },
            {
              "components": [
                {
                  "components": [
                    {
                      "internalType": "enum IRolldownPrimitives.Origin",
                      "name": "origin",
                      "type": "uint8"
                    },
                    {
                      "internalType": "uint256",
                      "name": "id",
                      "type": "uint256"
                    }
                  ],
                  "internalType": "struct IRolldownPrimitives.RequestId",
                  "name": "requestId",
                  "type": "tuple"
                },
                {
                  "internalType": "uint256[]",
                  "name": "l2UpdatesToRemove",
                  "type": "uint256[]"
                },
                {
                  "internalType": "uint256",
                  "name": "timeStamp",
                  "type": "uint256"
                }
              ],
              "internalType": "struct IRolldownPrimitives.L2UpdatesToRemove[]",
              "name": "pendingL2UpdatesToRemove",
              "type": "tuple[]"
            }
          ],
          "internalType": "struct IRolldownPrimitives.L1Update",
          "name": "",
          "type": "tuple"
        }
      ],
      "stateMutability": "view",
      "type": "function"
    },
    {
      "inputs": [],
      "name": "getUpdateForL2",
      "outputs": [
        {
          "components": [
            {
              "internalType": "enum IRolldownPrimitives.ChainId",
              "name": "chain",
              "type": "uint8"
            },
            {
              "components": [
                {
                  "components": [
                    {
                      "internalType": "enum IRolldownPrimitives.Origin",
                      "name": "origin",
                      "type": "uint8"
                    },
                    {
                      "internalType": "uint256",
                      "name": "id",
                      "type": "uint256"
                    }
                  ],
                  "internalType": "struct IRolldownPrimitives.RequestId",
                  "name": "requestId",
                  "type": "tuple"
                },
                {
                  "internalType": "address",
                  "name": "depositRecipient",
                  "type": "address"
                },
                {
                  "internalType": "address",
                  "name": "tokenAddress",
                  "type": "address"
                },
                {
                  "internalType": "uint256",
                  "name": "amount",
                  "type": "uint256"
                },
                {
                  "internalType": "uint256",
                  "name": "timeStamp",
                  "type": "uint256"
                }
              ],
              "internalType": "struct IRolldownPrimitives.Deposit[]",
              "name": "pendingDeposits",
              "type": "tuple[]"
            },
            {
              "components": [
                {
                  "components": [
                    {
                      "internalType": "enum IRolldownPrimitives.Origin",
                      "name": "origin",
                      "type": "uint8"
                    },
                    {
                      "internalType": "uint256",
                      "name": "id",
                      "type": "uint256"
                    }
                  ],
                  "internalType": "struct IRolldownPrimitives.RequestId",
                  "name": "requestId",
                  "type": "tuple"
                },
                {
                  "internalType": "uint256",
                  "name": "l2RequestId",
                  "type": "uint256"
                },
                {
                  "internalType": "bool",
                  "name": "cancelJustified",
                  "type": "bool"
                },
                {
                  "internalType": "uint256",
                  "name": "timeStamp",
                  "type": "uint256"
                }
              ],
              "internalType": "struct IRolldownPrimitives.CancelResolution[]",
              "name": "pendingCancelResolutions",
              "type": "tuple[]"
            },
            {
              "components": [
                {
                  "components": [
                    {
                      "internalType": "enum IRolldownPrimitives.Origin",
                      "name": "origin",
                      "type": "uint8"
                    },
                    {
                      "internalType": "uint256",
                      "name": "id",
                      "type": "uint256"
                    }
                  ],
                  "internalType": "struct IRolldownPrimitives.RequestId",
                  "name": "requestId",
                  "type": "tuple"
                },
                {
                  "internalType": "uint256",
                  "name": "l2RequestId",
                  "type": "uint256"
                },
                {
                  "internalType": "bool",
                  "name": "status",
                  "type": "bool"
                },
                {
                  "internalType": "uint256",
                  "name": "timeStamp",
                  "type": "uint256"
                }
              ],
              "internalType": "struct IRolldownPrimitives.WithdrawalResolution[]",
              "name": "pendingWithdrawalResolutions",
              "type": "tuple[]"
            },
            {
              "components": [
                {
                  "components": [
                    {
                      "internalType": "enum IRolldownPrimitives.Origin",
                      "name": "origin",
                      "type": "uint8"
                    },
                    {
                      "internalType": "uint256",
                      "name": "id",
                      "type": "uint256"
                    }
                  ],
                  "internalType": "struct IRolldownPrimitives.RequestId",
                  "name": "requestId",
                  "type": "tuple"
                },
                {
                  "internalType": "uint256[]",
                  "name": "l2UpdatesToRemove",
                  "type": "uint256[]"
                },
                {
                  "internalType": "uint256",
                  "name": "timeStamp",
                  "type": "uint256"
                }
              ],
              "internalType": "struct IRolldownPrimitives.L2UpdatesToRemove[]",
              "name": "pendingL2UpdatesToRemove",
              "type": "tuple[]"
            }
          ],
          "internalType": "struct IRolldownPrimitives.L1Update",
          "name": "",
          "type": "tuple"
        }
      ],
      "stateMutability": "view",
      "type": "function"
    },
    {
      "inputs": [
        {
          "internalType": "contract IPauserRegistry",
          "name": "_pauserRegistry",
          "type": "address"
        },
        {
          "internalType": "address",
          "name": "initialOwner",
          "type": "address"
        },
        {
          "internalType": "enum IRolldownPrimitives.ChainId",
          "name": "chainId",
          "type": "uint8"
        },
        {
          "internalType": "address",
          "name": "updater",
          "type": "address"
        }
      ],
      "name": "initialize",
      "outputs": [],
      "stateMutability": "nonpayable",
      "type": "function"
    },
    {
      "inputs": [],
      "name": "lastProcessedUpdate_origin_l1",
      "outputs": [
        {
          "internalType": "uint256",
          "name": "",
          "type": "uint256"
        }
      ],
      "stateMutability": "view",
      "type": "function"
    },
    {
      "inputs": [],
      "name": "lastProcessedUpdate_origin_l2",
      "outputs": [
        {
          "internalType": "uint256",
          "name": "",
          "type": "uint256"
        }
      ],
      "stateMutability": "view",
      "type": "function"
    },
    {
      "inputs": [],
      "name": "owner",
      "outputs": [
        {
          "internalType": "address",
          "name": "",
          "type": "address"
        }
      ],
      "stateMutability": "view",
      "type": "function"
    },
    {
      "inputs": [
        {
          "internalType": "uint256",
          "name": "newPausedStatus",
          "type": "uint256"
        }
      ],
      "name": "pause",
      "outputs": [],
      "stateMutability": "nonpayable",
      "type": "function"
    },
    {
      "inputs": [],
      "name": "pauseAll",
      "outputs": [],
      "stateMutability": "nonpayable",
      "type": "function"
    },
    {
      "inputs": [
        {
          "internalType": "uint8",
          "name": "index",
          "type": "uint8"
        }
      ],
      "name": "paused",
      "outputs": [
        {
          "internalType": "bool",
          "name": "",
          "type": "bool"
        }
      ],
      "stateMutability": "view",
      "type": "function"
    },
    {
      "inputs": [],
      "name": "paused",
      "outputs": [
        {
          "internalType": "uint256",
          "name": "",
          "type": "uint256"
        }
      ],
      "stateMutability": "view",
      "type": "function"
    },
    {
      "inputs": [],
      "name": "pauserRegistry",
      "outputs": [
        {
          "internalType": "contract IPauserRegistry",
          "name": "",
          "type": "address"
        }
      ],
      "stateMutability": "view",
      "type": "function"
    },
    {
      "inputs": [
        {
          "internalType": "address",
          "name": "",
          "type": "address"
        }
      ],
      "name": "pendingEthWithdrawals",
      "outputs": [
        {
          "internalType": "uint256",
          "name": "",
          "type": "uint256"
        }
      ],
      "stateMutability": "view",
      "type": "function"
    },
    {
      "inputs": [],
      "name": "renounceOwnership",
      "outputs": [],
      "stateMutability": "nonpayable",
      "type": "function"
    },
    {
      "inputs": [
        {
          "internalType": "contract IPauserRegistry",
          "name": "newPauserRegistry",
          "type": "address"
        }
      ],
      "name": "setPauserRegistry",
      "outputs": [],
      "stateMutability": "nonpayable",
      "type": "function"
    },
    {
      "inputs": [
        {
          "internalType": "address",
          "name": "updater",
          "type": "address"
        }
      ],
      "name": "setUpdater",
      "outputs": [],
      "stateMutability": "nonpayable",
      "type": "function"
    },
    {
      "inputs": [
        {
          "internalType": "address",
          "name": "newOwner",
          "type": "address"
        }
      ],
      "name": "transferOwnership",
      "outputs": [],
      "stateMutability": "nonpayable",
      "type": "function"
    },
    {
      "inputs": [
        {
          "internalType": "uint256",
          "name": "newPausedStatus",
          "type": "uint256"
        }
      ],
      "name": "unpause",
      "outputs": [],
      "stateMutability": "nonpayable",
      "type": "function"
    },
    {
      "inputs": [
        {
          "components": [
            {
              "components": [
                {
                  "components": [
                    {
                      "internalType": "enum IRolldownPrimitives.Origin",
                      "name": "origin",
                      "type": "uint8"
                    },
                    {
                      "internalType": "uint256",
                      "name": "id",
                      "type": "uint256"
                    }
                  ],
                  "internalType": "struct IRolldownPrimitives.RequestId",
                  "name": "requestId",
                  "type": "tuple"
                },
                {
                  "components": [
                    {
                      "internalType": "uint256",
                      "name": "start",
                      "type": "uint256"
                    },
                    {
                      "internalType": "uint256",
                      "name": "end",
                      "type": "uint256"
                    }
                  ],
                  "internalType": "struct IRolldownPrimitives.Range",
                  "name": "range",
                  "type": "tuple"
                },
                {
                  "internalType": "bytes32",
                  "name": "hash",
                  "type": "bytes32"
                }
              ],
              "internalType": "struct IRolldownPrimitives.Cancel[]",
              "name": "cancels",
              "type": "tuple[]"
            },
            {
              "components": [
                {
                  "components": [
                    {
                      "internalType": "enum IRolldownPrimitives.Origin",
                      "name": "origin",
                      "type": "uint8"
                    },
                    {
                      "internalType": "uint256",
                      "name": "id",
                      "type": "uint256"
                    }
                  ],
                  "internalType": "struct IRolldownPrimitives.RequestId",
                  "name": "requestId",
                  "type": "tuple"
                },
                {
                  "internalType": "address",
                  "name": "withdrawalRecipient",
                  "type": "address"
                },
                {
                  "internalType": "address",
                  "name": "tokenAddress",
                  "type": "address"
                },
                {
                  "internalType": "uint256",
                  "name": "amount",
                  "type": "uint256"
                }
              ],
              "internalType": "struct IRolldownPrimitives.Withdrawal[]",
              "name": "withdrawals",
              "type": "tuple[]"
            },
            {
              "components": [
                {
                  "components": [
                    {
                      "internalType": "enum IRolldownPrimitives.Origin",
                      "name": "origin",
                      "type": "uint8"
                    },
                    {
                      "internalType": "uint256",
                      "name": "id",
                      "type": "uint256"
                    }
                  ],
                  "internalType": "struct IRolldownPrimitives.RequestId",
                  "name": "requestId",
                  "type": "tuple"
                },
                {
                  "internalType": "uint256",
                  "name": "originRequestId",
                  "type": "uint256"
                },
                {
                  "internalType": "enum IRolldownPrimitives.UpdateType",
                  "name": "updateType",
                  "type": "uint8"
                },
                {
                  "internalType": "bool",
                  "name": "status",
                  "type": "bool"
                }
              ],
              "internalType": "struct IRolldownPrimitives.RequestResult[]",
              "name": "results",
              "type": "tuple[]"
            }
          ],
          "internalType": "struct IRolldownPrimitives.L2Update",
          "name": "inputArray",
          "type": "tuple"
        }
      ],
      "name": "update_l1_from_l2",
      "outputs": [],
      "stateMutability": "nonpayable",
      "type": "function"
    },
    {
      "inputs": [],
      "name": "updaterAccount",
      "outputs": [
        {
          "internalType": "address",
          "name": "",
          "type": "address"
        }
      ],
      "stateMutability": "view",
      "type": "function"
    },
    {
      "inputs": [
        {
          "internalType": "uint256",
          "name": "amount",
          "type": "uint256"
        }
      ],
      "name": "withdraw_pending_eth",
      "outputs": [],
      "stateMutability": "nonpayable",
      "type": "function"
    },
    {
      "inputs": [
        {
          "internalType": "uint256",
          "name": "",
          "type": "uint256"
        }
      ],
      "name": "withdrawalResolutions",
      "outputs": [
        {
          "components": [
            {
              "internalType": "enum IRolldownPrimitives.Origin",
              "name": "origin",
              "type": "uint8"
            },
            {
              "internalType": "uint256",
              "name": "id",
              "type": "uint256"
            }
          ],
          "internalType": "struct IRolldownPrimitives.RequestId",
          "name": "requestId",
          "type": "tuple"
        },
        {
          "internalType": "uint256",
          "name": "l2RequestId",
          "type": "uint256"
        },
        {
          "internalType": "bool",
          "name": "status",
          "type": "bool"
        },
        {
          "internalType": "uint256",
          "name": "timeStamp",
          "type": "uint256"
        }
      ],
      "stateMutability": "view",
      "type": "function"
    }
  ],
  "bytecode": {
    "object": "0x608060405234801561001057600080fd5b50613b28806100206000396000f3fe6080604052600436106101b75760003560e01c806380bc280c116100ec578063c763e5a11161008a578063f26ee9d011610064578063f26ee9d0146104e9578063f2fde38b146104ff578063fabc1cbc1461051f578063ffea632b1461053f57600080fd5b8063c763e5a114610482578063ca9b21ae146104a9578063d16544f0146104c957600080fd5b80639d54f419116100c65780639d54f419146103fd578063a7acab461461041d578063a80fc9bd1461043d578063b15387061461046d57600080fd5b806380bc280c14610392578063886f1195146103bf5780638da5cb5b146103df57600080fd5b80635ac86ab711610159578063715018a611610133578063715018a61461031557806371c544611461032a57806379e041f21461034f5780637fd4f8451461037c57600080fd5b80635ac86ab7146102a05780635c975abb146102e057806361bc221a146102ff57600080fd5b8063274b3df411610195578063274b3df41461024357806347e7ef241461024b5780635740b89d1461026b578063595c6a671461028b57600080fd5b806310d67a2f146101bc578063136439dd146101de5780631878d1f1146101fe575b600080fd5b3480156101c857600080fd5b506101dc6101d7366004613364565b61055f565b005b3480156101ea57600080fd5b506101dc6101f9366004613381565b61061b565b34801561020a57600080fd5b5061022673574839586746383753739573937593749373345781565b6040516001600160a01b0390911681526020015b60405180910390f35b6101dc61075a565b34801561025757600080fd5b506101dc61026636600461339a565b61094b565b34801561027757600080fd5b506101dc6102863660046133c6565b610979565b34801561029757600080fd5b506101dc610c3c565b3480156102ac57600080fd5b506102d06102bb366004613401565b606654600160ff9092169190911b9081161490565b604051901515815260200161023a565b3480156102ec57600080fd5b506066545b60405190815260200161023a565b34801561030b57600080fd5b506102f160975481565b34801561032157600080fd5b506101dc610d03565b34801561033657600080fd5b50609a546102269061010090046001600160a01b031681565b34801561035b57600080fd5b5061036f61036a366004613424565b610d17565b60405161023a91906135a8565b34801561038857600080fd5b506102f160985481565b34801561039e57600080fd5b506102f16103ad366004613364565b609f6020526000908152604090205481565b3480156103cb57600080fd5b50606554610226906001600160a01b031681565b3480156103eb57600080fd5b506033546001600160a01b0316610226565b34801561040957600080fd5b506101dc610418366004613364565b6113e4565b34801561042957600080fd5b506101dc610438366004613381565b6114e1565b34801561044957600080fd5b5061045d610458366004613381565b61167c565b60405161023a94939291906136a8565b34801561047957600080fd5b5061036f6116ee565b34801561048e57600080fd5b50609a5461049c9060ff1681565b60405161023a91906136d1565b3480156104b557600080fd5b5061045d6104c4366004613381565b611747565b3480156104d557600080fd5b506101dc6104e436600461339a565b61177c565b3480156104f557600080fd5b506102f160995481565b34801561050b57600080fd5b506101dc61051a366004613364565b611a47565b34801561052b57600080fd5b506101dc61053a366004613381565b611abd565b34801561054b57600080fd5b506101dc61055a3660046136f1565b611c19565b606560009054906101000a90046001600160a01b03166001600160a01b031663eab66d7a6040518163ffffffff1660e01b8152600401602060405180830381865afa1580156105b2573d6000803e3d6000fd5b505050506040513d601f19601f820116820180604052508101906105d6919061374d565b6001600160a01b0316336001600160a01b03161461060f5760405162461bcd60e51b81526004016106069061376a565b60405180910390fd5b61061881611d91565b50565b60655460405163237dfb4760e11b81523360048201526001600160a01b03909116906346fbf68e90602401602060405180830381865afa158015610663573d6000803e3d6000fd5b505050506040513d601f19601f8201168201806040525081019061068791906137c2565b6106a35760405162461bcd60e51b8152600401610606906137df565b6066548181161461071c5760405162461bcd60e51b815260206004820152603860248201527f5061757361626c652e70617573653a20696e76616c696420617474656d70742060448201527f746f20756e70617573652066756e6374696f6e616c69747900000000000000006064820152608401610606565b606681905560405181815233907fab40a374bc51de372200a8bc981af8c9ecdc08dfdaef0bb6e09f88f3c616ef3d906020015b60405180910390a250565b6066541561077a5760405162461bcd60e51b815260040161060690613827565b600034116107ca5760405162461bcd60e51b815260206004820181905260248201527f6d73672076616c7565206d7573742062652067726561746572207468617420306044820152606401610606565b6040805160e081019091523390349042906000908060a0810180848152602001609760008154809291906107fd90613874565b90915550905281526001600160a01b03861660208083019190915273574839586746383753739573937593749373345760408084019190915260608301879052608090920185905282518101516000908152609d909152208151805182549394508493839190829060ff19166001838181111561087c5761087c613446565b021790555060209182015160019190910155828101516002830180546001600160a01b03199081166001600160a01b03938416179091556040808601516003860180549093169084161790915560608086015160048601556080958601516005909501949094558551830151815190815291891692820192909252735748395867463837537395739375937493733457918101919091529081018590527fe28491c2da97a9923c92f6590a040dfc143fe636e8545356cdab0a796e1acefa91015b60405180910390a150505050565b6066541561096b5760405162461bcd60e51b815260040161060690613827565b610975828261177c565b5050565b606654156109995760405162461bcd60e51b815260040161060690613827565b609a5461010090046001600160a01b031633146109e85760405162461bcd60e51b815260206004820152600d60248201526c2737ba103a34329037bbb732b960991b6044820152606401610606565b60016109f7604083018361388f565b9050101580610a1257506001610a0d828061388f565b905010155b80610a2c57506001610a27602083018361388f565b905010155b610a825760405162461bcd60e51b815260206004820152602160248201527f4172726179206d7573742068617665206174206c6561737420312075706461746044820152606560f81b6064820152608401610606565b600080610a8e83611e88565b915091508160001415610ab35760405162461bcd60e51b8152600401610606906138df565b609954610ac1906001613909565b821115610ae05760405162461bcd60e51b8152600401610606906138df565b6099548111610b015760405162461bcd60e51b8152600401610606906138df565b6000610b0d8385611fbe565b90506000610b2782610b22604088018861388f565b612338565b9050610b3382866125fe565b805115610c35576097805460009182610b4b83613874565b909155506040805160a08101909152909150806060810180600081526020908101859052908252818101859052426040928301526000848152609e90915220815180518254839190829060ff191660018381811115610bac57610bac613446565b0217905550602091820151600190910155828101518051610bd392600285019201906132ef565b5060408201518160030155905050815160986000828254610bf49190613909565b90915550506040517f09b30365986269e3939307e7ca7b7b7421a8ad08ef18bb766c668d27cbc2aef990610c2b9083908590613921565b60405180910390a1505b5050505050565b60655460405163237dfb4760e11b81523360048201526001600160a01b03909116906346fbf68e90602401602060405180830381865afa158015610c84573d6000803e3d6000fd5b505050506040513d601f19601f82011682018060405250810190610ca891906137c2565b610cc45760405162461bcd60e51b8152600401610606906137df565b600019606681905560405190815233907fab40a374bc51de372200a8bc981af8c9ecdc08dfdaef0bb6e09f88f3c616ef3d9060200160405180910390a2565b610d0b6127fe565b610d156000612858565b565b610d4a6040805160a081019091528060008152602001606081526020016060815260200160608152602001606081525090565b610d7d6040805160a081019091528060008152602001606081526020016060815260200160608152602001606081525090565b609a54819060ff166001811115610d9657610d96613446565b90816001811115610da957610da9613446565b9052506000808080875b878111610e6c576000818152609d602052604090206001015415610de35784610ddb81613874565b955050610e5a565b6000818152609e602052604090206001015415610e0c5781610e0481613874565b925050610e5a565b6000818152609b602052604090206001015415610e355783610e2d81613874565b945050610e5a565b6000818152609c602052604090206001015415610e5a5782610e5681613874565b9350505b80610e6481613874565b915050610db3565b508367ffffffffffffffff811115610e8657610e86613942565b604051908082528060200260200182016040528015610eec57816020015b6040805160e081018252600060a0820181815260c08301829052825260208083018290529282018190526060820181905260808201528252600019909201910181610ea45790505b5060208601528167ffffffffffffffff811115610f0b57610f0b613942565b604051908082528060200260200182016040528015610f6a57816020015b6040805160c08101825260006080820181815260a083018290528252602080830182905292820181905260608201528252600019909201910181610f295790505b5060408601528267ffffffffffffffff811115610f8957610f89613942565b604051908082528060200260200182016040528015610fe857816020015b6040805160c08101825260006080820181815260a083018290528252602080830182905292820181905260608201528252600019909201910181610fa75790505b5060608601528067ffffffffffffffff81111561100757611007613942565b60405190808252806020026020018201604052801561106157816020015b6040805160a081018252600060608083018281526080840183905283526020830152918101919091528152602001906001900390816110255790505b506080860152506000925082915081905080875b8781116113d5576000818152609d602052604090206001015415611154576000818152609d602052604090819020815160e081019092528054829060a08201908390829060ff1660018111156110cd576110cd613446565b60018111156110de576110de613446565b81526001919091015460209182015290825260028301546001600160a01b03908116838301526003840154166040830152600483015460608301526005909201546080909101528701518661113281613874565b97508151811061114457611144613958565b60200260200101819052506113c3565b6000818152609b60205260409020600101541561120b576000818152609b602052604090819020815160c081019092528054829060808201908390829060ff1660018111156111a5576111a5613446565b60018111156111b6576111b6613446565b815260019190910154602091820152908252600283015490820152600382015460ff1615156040820152600490910154606091820152870151856111f981613874565b96508151811061114457611144613958565b6000818152609e602052604090206001015415611303576000818152609e602052604090819020815160a081019092528054829060608201908390829060ff16600181111561125c5761125c613446565b600181111561126d5761126d613446565b81526020016001820154815250508152602001600282018054806020026020016040519081016040528092919081815260200182805480156112ce57602002820191906000526020600020905b8154815260200190600101908083116112ba575b50505050508152602001600382015481525050866080015183806112f190613874565b94508151811061114457611144613958565b6000818152609c6020526040902060020154156113be576000818152609c602052604090819020815160c081019092528054829060808201908390829060ff16600181111561135457611354613446565b600181111561136557611365613446565b815260019190910154602091820152908252600283015490820152600382015460ff161515604080830191909152600490920154606090910152870151846113ac81613874565b95508151811061114457611144613958565b6113d5565b806113cd81613874565b915050611075565b50939450505050505b92915050565b606654156114045760405162461bcd60e51b815260040161060690613827565b609a5461010090046001600160a01b031633146114825760405162461bcd60e51b815260206004820152603660248201527f4f6e6c792061637469766520757064617465722063616e206d6f7665207269676044820152751a1d1cc81d1bc818481b995dc818481858d8dbdd5b9d60521b6064820152608401610606565b609a8054610100600160a81b0319166101006001600160a01b038481168202929092179283905560405192041681527f1b0f2f500df596b42b73e80dbec6a1fb570f01978a586723f988a5fc54d773a19060200160405180910390a150565b606654156115015760405162461bcd60e51b815260040161060690613827565b600081116115515760405162461bcd60e51b815260206004820181905260248201527f416d6f756e74206d7573742062652067726561746572207468616e207a65726f6044820152606401610606565b336000818152609f60205260409020548211156115bb5760405162461bcd60e51b815260206004820152602260248201527f6e6f7420656e6f7567682070656e64696e6720776974686472617720616d6f756044820152611b9d60f21b6064820152608401610606565b30318211156116035760405162461bcd60e51b81526020600482015260146024820152736e6f7420656e6f756768206574682066756e647360601b6044820152606401610606565b6001600160a01b0381166000908152609f60205260408120805484929061162b90849061396e565b9091555050604080516001600160a01b0383168152602081018490527f74b13e26477934df4349c96042c16ffb2ec5e0f902cdf60e4755711cd460ce99910160405180910390a161097581836128aa565b609b6020526000908152604090819020815180830190925280549091908290829060ff1660018111156116b1576116b1613446565b60018111156116c2576116c2613446565b815260019190910154602090910152600282015460038301546004909301549192909160ff9091169084565b6117216040805160a081019091528060008152602001606081526020016060815260200160608152602001606081525090565b61174260985460016117339190613909565b600160975461036a919061396e565b905090565b609c6020526000908152604090819020815180830190925280549091908290829060ff1660018111156116b1576116b1613446565b6066541561179c5760405162461bcd60e51b815260040161060690613827565b6001600160a01b0382166117ea5760405162461bcd60e51b8152602060048201526015602482015274496e76616c696420746f6b656e206164647265737360581b6044820152606401610606565b6000811161183a5760405162461bcd60e51b815260206004820181905260248201527f416d6f756e74206d7573742062652067726561746572207468616e207a65726f6044820152606401610606565b6040516323b872dd60e01b81523360048201819052306024830152604482018390529083906001600160a01b038216906323b872dd906064016020604051808303816000875af1158015611892573d6000803e3d6000fd5b505050506040513d601f19601f820116820180604052508101906118b691906137c2565b6118fa5760405162461bcd60e51b8152602060048201526015602482015274151bdad95b881d1c985b9cd9995c8819985a5b1959605a1b6044820152606401610606565b6040805160e0810190915242906000908060a08101808481526020016097600081548092919061192990613874565b90915550905281526001600160a01b0380871660208084019190915290891660408084019190915260608301899052608090920185905282518101516000908152609d909152208151805182549394508493839190829060ff19166001838181111561199757611997613446565b021790555060209182015160019190910155828101516002830180546001600160a01b03199081166001600160a01b03938416179091556040808601516003860180549093169084161790915560608086015160048601556080958601516005909501949094558551830151815190815289831693810193909352908a16908201529081018790527fe28491c2da97a9923c92f6590a040dfc143fe636e8545356cdab0a796e1acefa9101610c2b565b611a4f6127fe565b6001600160a01b038116611ab45760405162461bcd60e51b815260206004820152602660248201527f4f776e61626c653a206e6577206f776e657220697320746865207a65726f206160448201526564647265737360d01b6064820152608401610606565b61061881612858565b606560009054906101000a90046001600160a01b03166001600160a01b031663eab66d7a6040518163ffffffff1660e01b8152600401602060405180830381865afa158015611b10573d6000803e3d6000fd5b505050506040513d601f19601f82011682018060405250810190611b34919061374d565b6001600160a01b0316336001600160a01b031614611b645760405162461bcd60e51b81526004016106069061376a565b606654198119606654191614611be25760405162461bcd60e51b815260206004820152603860248201527f5061757361626c652e756e70617573653a20696e76616c696420617474656d7060448201527f7420746f2070617573652066756e6374696f6e616c69747900000000000000006064820152608401610606565b606681905560405181815233907f3582d1828e26bf56bd801502bc021ac0bc8afb57c826e4986b45593c8fad389c9060200161074f565b600054610100900460ff1615808015611c395750600054600160ff909116105b80611c535750303b158015611c53575060005460ff166001145b611cb65760405162461bcd60e51b815260206004820152602e60248201527f496e697469616c697a61626c653a20636f6e747261637420697320616c72656160448201526d191e481a5b9a5d1a585b1a5e995960921b6064820152608401610606565b6000805460ff191660011790558015611cd9576000805461ff0019166101001790555b611ce48560006129c8565b611ced84612858565b6000609881905560016097819055609991909155609a8054859260ff19909116908381811115611d1f57611d1f613446565b0217905550609a8054610100600160a81b0319166101006001600160a01b038516021790558015610c35576000805461ff0019169055604051600181527f7f26b83ff96e1f2b6a682f133852f6798a09c465da95921460cefb3847402498906020015b60405180910390a15050505050565b6001600160a01b038116611e1f5760405162461bcd60e51b815260206004820152604960248201527f5061757361626c652e5f73657450617573657252656769737472793a206e657760448201527f50617573657252656769737472792063616e6e6f7420626520746865207a65726064820152686f206164647265737360b81b608482015260a401610606565b606554604080516001600160a01b03928316815291831660208301527f6e9fcd539896fca60e8b0f01dd580233e48a6b0f7df013b89ba7f565869acdb6910160405180910390a1606580546001600160a01b0319166001600160a01b0392909216919091179055565b6000806000198180611e9a868061388f565b90501115611f1e57611ed3611eaf868061388f565b6000818110611ec057611ec0613958565b905060a002016000016020013583612aae565b9150611f1b611ee2868061388f565b6001611eee898061388f565b611ef992915061396e565b818110611f0857611f08613958565b905060a002016000016020013582612ac4565b90505b6000611f2d602087018761388f565b90501115611f6957611f45611eaf602087018761388f565b9150611f66611f57602087018761388f565b6001611eee60208a018a61388f565b90505b6000611f78604087018761388f565b90501115611fb457611f90611eaf604087018761388f565b9150611fb1611fa2604087018761388f565b6001611eee60408a018a61388f565b90505b9094909350915050565b6060611fcd604083018361388f565b1590508015611fe55750611fe1828061388f565b1590505b8015611ffd5750611ff9602083018361388f565b1590505b1561201757506040805160008152602081019091526113de565b60008080808061202a604088018861388f565b9050612039602089018961388f565b9050612045898061388f565b612050929150613909565b61205a9190613909565b905060008167ffffffffffffffff81111561207757612077613942565b6040519080825280602002602001820160405280156120a0578160200160208202803683370190505b509050885b6120af838b613909565b81101561232b576120c360208a018a61388f565b9050871080156120fb5750806120dc60208b018b61388f565b898181106120ec576120ec613958565b905060a0020160000160200135145b1561216357600182858151811061211457612114613958565b6020026020010190600581111561212d5761212d613446565b9081600581111561214057612140613446565b9052508661214d81613874565b975050838061215b90613874565b945050612319565b61216d898061388f565b9050861080156121a25750806121838a8061388f565b8881811061219357612193613958565b905060a0020160000160200135145b156122025760048285815181106121bb576121bb613958565b602002602001019060058111156121d4576121d4613446565b908160058111156121e7576121e7613446565b905250856121f481613874565b965050838061215b90613874565b61220f60408a018a61388f565b90508510801561224757508061222860408b018b61388f565b8781811061223857612238613958565b905060a0020160000160200135145b156122a757600382858151811061226057612260613958565b6020026020010190600581111561227957612279613446565b9081600581111561228c5761228c613446565b9052508461229981613874565b955050838061215b90613874565b6122dd604051806040016040528060158152602001743932b8bab2b9ba39903737ba1034b71037b93232b960591b815250612ad3565b60405162461bcd60e51b8152602060048201526011602482015270696e76616c696465204c3255706461746560781b6044820152606401610606565b8061232381613874565b9150506120a5565b5098975050505050505050565b60608161235457506040805160008152602081019091526125f7565b6000808367ffffffffffffffff81111561237057612370613942565b604051908082528060200260200182016040528015612399578160200160208202803683370190505b5090506000805b87518110156125545760038882815181106123bd576123bd613958565b602002602001015160058111156123d6576123d6613446565b14156125425760008787846123ea81613874565b95508181106123fb576123fb613958565b905060a0020180360381019061241191906139cc565b90506099548160000151602001511161242a5750612542565b60008160400151600581111561244257612442613446565b1480612463575060038160400151600581111561246157612461613446565b145b80612483575060058160400151600581111561248157612481613446565b145b806124a357506002816040015160058111156124a1576124a1613446565b145b1561250157602081015184866124b881613874565b9750815181106124ca576124ca613958565b60209081029190910101526000816040015160058111156124ed576124ed613446565b14156124fc576124fc81612b16565b612540565b60405162461bcd60e51b8152602060048201526014602482015273756e6b6e6f776e2072657175657374207479706560601b6044820152606401610606565b505b8061254c81613874565b9150506123a0565b5060008367ffffffffffffffff81111561257057612570613942565b604051908082528060200260200182016040528015612599578160200160208202803683370190505b50905060005b848110156125f0578381815181106125b9576125b9613958565b60200260200101518282815181106125d3576125d3613958565b6020908102919091010152806125e881613874565b91505061259f565b5093505050505b9392505050565b6000806000805b85518110156127f657600186828151811061262257612622613958565b6020026020010151600581111561263b5761263b613446565b14156126ac573661264f602087018761388f565b8561265981613874565b965081811061266a5761266a613958565b905060a00201905060995481600001602001351161268857506127e4565b61269181612c9d565b609980549060006126a183613874565b9190505550506127e4565b60048682815181106126c0576126c0613958565b602002602001015160058111156126d9576126d9613446565b141561272c57366126ea868061388f565b866126f481613874565b975081811061270557612705613958565b905060a00201905060995481600001602001351161272357506127e4565b61269181612ce3565b600386828151811061274057612740613958565b6020026020010151600581111561275957612759613446565b14156127a6573661276d604087018761388f565b8461277781613874565b955081811061278857612788613958565b905060a00201905060995481600001602001351161269157506127e4565b60405162461bcd60e51b8152602060048201526013602482015272756e6b6e6f776e20757064617465207479706560681b6044820152606401610606565b806127ee81613874565b915050612605565b505050505050565b6033546001600160a01b03163314610d155760405162461bcd60e51b815260206004820181905260248201527f4f776e61626c653a2063616c6c6572206973206e6f7420746865206f776e65726044820152606401610606565b603380546001600160a01b038381166001600160a01b0319831681179093556040519116919082907f8be0079c531659141344cd1fd0a4f28419497f9722a3daafe3b4186f6b6457e090600090a35050565b804710156128fa5760405162461bcd60e51b815260206004820152601d60248201527f416464726573733a20696e73756666696369656e742062616c616e63650000006044820152606401610606565b6000826001600160a01b03168260405160006040518083038185875af1925050503d8060008114612947576040519150601f19603f3d011682016040523d82523d6000602084013e61294c565b606091505b50509050806129c35760405162461bcd60e51b815260206004820152603a60248201527f416464726573733a20756e61626c6520746f2073656e642076616c75652c207260448201527f6563697069656e74206d617920686176652072657665727465640000000000006064820152608401610606565b505050565b6065546001600160a01b03161580156129e957506001600160a01b03821615155b612a6b5760405162461bcd60e51b815260206004820152604760248201527f5061757361626c652e5f696e697469616c697a655061757365723a205f696e6960448201527f7469616c697a6550617573657228292063616e206f6e6c792062652063616c6c6064820152666564206f6e636560c81b608482015260a401610606565b606681905560405181815233907fab40a374bc51de372200a8bc981af8c9ecdc08dfdaef0bb6e09f88f3c616ef3d9060200160405180910390a261097582611d91565b6000818310612abd57816125f7565b5090919050565b6000818311612abd57816125f7565b61061881604051602401612ae79190613a84565b60408051601f198184030181529190526020810180516001600160e01b031663104c13eb60e21b179052612e34565b80606001516106185780516020908101516000818152609d9092526040808320815160e081019092528054929392829060a08201908390829060ff166001811115612b6357612b63613446565b6001811115612b7457612b74613446565b81526001919091015460209182015290825260028301546001600160a01b039081168383015260038401548116604080850191909152600480860154606080870191909152600590960154608090950194909452858101519286015194860151905163a9059cbb60e01b815294821693850193909352602484019290925292935082169063a9059cbb906044016020604051808303816000875af1158015612c20573d6000803e3d6000fd5b505050506040513d601f19601f82011682018060405250810190612c4491906137c2565b5060208083015160408085015160608087015183516001600160a01b0395861681529490921694840194909452908201527fd94415916610c60b0e0e439fd308b171a6e28fad608830cf17f14ff5928e2279910161093d565b735748395867463837537395739375937493733457612cc26080830160608401613364565b6001600160a01b03161415612cda5761061881612e55565b61061881613050565b6000612cf760408301356060840135610d17565b9050600081604051602001612d0c91906135a8565b60408051601f19818403018152828252805160209091012060c083019091529150429060009080608081018084815260200160976000815480929190612d5190613874565b90915550905281526020878101358183015260808801358614604080840191909152606090920185905282518101516000908152609c909152208151805182549394508493839190829060ff191660018381811115612db257612db2613446565b021790555060209182015160019091015582810151600283015560408084015160038401805491151560ff199092169190911790556060909301516004909201919091558201518282015191517fd16f202ac5905ff5d1851f4805ffe56d1212db32fa989881d0044b9cf0f7277692611d829282521515602082015260400190565b80516a636f6e736f6c652e6c6f67602083016000808483855afa5050505050565b6040805160c081019091526080808301353031101591429160009190819081018084815260200160976000815480929190612e8f90613874565b909155509052815260208681013581830152851515604080840191909152606090920185905282518101516000908152609b909152208151805182549394508493839190829060ff191660018381811115612eec57612eec613446565b02179055506020918201516001919091015582810151600283015560408084015160038401805460ff191691151591909117905560609093015160049092019190915582518101518251908152851515918101919091527f0c4873525770dbb64515e9d3950131f79ed8f72ff147ff1723bbe2e77e3791aa910160405180910390a1821561304a576080840135609f6000612f8d6060880160408901613364565b6001600160a01b03166001600160a01b031681526020019081526020016000206000828254612fbc9190613909565b909155507fe40f985f6a88d7d060348dc647fb85bb6365eee1437a753cd67141bc3eda8fa99050612ff36060860160408701613364565b609f60006130076060890160408a01613364565b6001600160a01b03166001600160a01b031681526020019081526020016000205460405161093d9291906001600160a01b03929092168252602082015260400190565b50505050565b60006130626080830160608401613364565b6040516370a0823160e01b81523060048201529091506000906080840135906001600160a01b038416906370a0823190602401602060405180830381865afa1580156130b2573d6000803e3d6000fd5b505050506040513d601f19601f820116820180604052508101906130d69190613ad9565b6040805160c08101909152911115915042906000908060808101808481526020016097600081548092919061310a90613874565b909155509052815260208781013581830152851515604080840191909152606090920185905282518101516000908152609b909152208151805182549394508493839190829060ff19166001838181111561316757613167613446565b02179055506020918201516001919091015582810151600283015560408084015160038401805460ff191691151591909117905560609093015160049092019190915582518101518251908152851515918101919091527f0c4873525770dbb64515e9d3950131f79ed8f72ff147ff1723bbe2e77e3791aa910160405180910390a18215610c35576001600160a01b03841663a9059cbb61320e6060880160408901613364565b6040516001600160e01b031960e084901b1681526001600160a01b039091166004820152608088013560248201526044016020604051808303816000875af115801561325e573d6000803e3d6000fd5b505050506040513d601f19601f8201168201806040525081019061328291906137c2565b507fa92ff919b850e4909ab2261d907ef955f11bc1716733a6cbece38d163a69af8a6132b46060870160408801613364565b6132c46080880160608901613364565b604080516001600160a01b039384168152929091166020830152608088013590820152606001611d82565b82805482825590600052602060002090810192821561332a579160200282015b8281111561332a57825182559160200191906001019061330f565b5061333692915061333a565b5090565b5b80821115613336576000815560010161333b565b6001600160a01b038116811461061857600080fd5b60006020828403121561337657600080fd5b81356125f78161334f565b60006020828403121561339357600080fd5b5035919050565b600080604083850312156133ad57600080fd5b82356133b88161334f565b946020939093013593505050565b6000602082840312156133d857600080fd5b813567ffffffffffffffff8111156133ef57600080fd5b8201606081850312156125f757600080fd5b60006020828403121561341357600080fd5b813560ff811681146125f757600080fd5b6000806040838503121561343757600080fd5b50508035926020909101359150565b634e487b7160e01b600052602160045260246000fd5b6002811061061857634e487b7160e01b600052602160045260246000fd5b80516134858161345c565b8252602090810151910152565b600081518084526020808501945080840160005b838110156134ef5781516134bb88825161347a565b8084015160408981019190915281015115156060808a01919091520151608088015260a090960195908201906001016134a6565b509495945050505050565b600081518084526020808501945080840160005b838110156134ef5781518752958201959082019060010161350e565b600081518084526020808501808196508360051b8101915082860160005b8581101561359b5782840389528151608061356486835161347a565b868201516040828189015261357b838901836134fa565b930151606097909701969096525098850198935090840190600101613548565b5091979650505050505050565b6000602080835260c080840185516135bf8161345c565b858401528583015160a06040808801829052825193849052918501926000929060e08901905b808510156136415785516135fa83825161347a565b808901516001600160a01b039081168486015284820151166060808501919091528101516080808501919091520151848301529487019460019490940193908601906135e5565b50818a01519650601f199550858982030160608a01526136618188613492565b9650505060608801519250838786030160808801526136808584613492565b945060808801519250838786030181880152505061369e838261352a565b9695505050505050565b60a081016136b6828761347a565b60408201949094529115156060830152608090910152919050565b602081016136de8361345c565b91905290565b6002811061061857600080fd5b6000806000806080858703121561370757600080fd5b84356137128161334f565b935060208501356137228161334f565b92506040850135613732816136e4565b915060608501356137428161334f565b939692955090935050565b60006020828403121561375f57600080fd5b81516125f78161334f565b6020808252602a908201527f6d73672e73656e646572206973206e6f74207065726d697373696f6e6564206160408201526939903ab73830bab9b2b960b11b606082015260800190565b801515811461061857600080fd5b6000602082840312156137d457600080fd5b81516125f7816137b4565b60208082526028908201527f6d73672e73656e646572206973206e6f74207065726d697373696f6e6564206160408201526739903830bab9b2b960c11b606082015260800190565b6020808252601c908201527f5061757361626c653a20636f6e74726163742069732070617573656400000000604082015260600190565b634e487b7160e01b600052601160045260246000fd5b60006000198214156138885761388861385e565b5060010190565b6000808335601e198436030181126138a657600080fd5b83018035915067ffffffffffffffff8211156138c157600080fd5b602001915060a0810236038213156138d857600080fd5b9250929050565b60208082526010908201526f496e76616c6964204c3255706461746560801b604082015260600190565b6000821982111561391c5761391c61385e565b500190565b82815260406020820152600061393a60408301846134fa565b949350505050565b634e487b7160e01b600052604160045260246000fd5b634e487b7160e01b600052603260045260246000fd5b6000828210156139805761398061385e565b500390565b6040805190810167ffffffffffffffff811182821017156139b657634e487b7160e01b600052604160045260246000fd5b60405290565b80356139c7816137b4565b919050565b600081830360a08112156139df57600080fd5b6040516080810181811067ffffffffffffffff82111715613a1057634e487b7160e01b600052604160045260246000fd5b6040908152821215613a2157600080fd5b613a29613985565b91508335613a36816136e4565b8083525060208401356020830152818152604084013560208201526060840135915060068210613a6557600080fd5b816040820152613a77608085016139bc565b6060820152949350505050565b600060208083528351808285015260005b81811015613ab157858101830151858201604001528201613a95565b81811115613ac3576000604083870101525b50601f01601f1916929092016040019392505050565b600060208284031215613aeb57600080fd5b505191905056fea2646970667358221220ecf4d34ab483850794dde9dc8b921ba16d773e8a8da3861b1c7b58df1986b9f364736f6c634300080c0033",
    "linkReferences": {}
  },
  "methodIdentifiers": {
    "ETH_TOKEN_ADDRESS()": "1878d1f1",
    "cancelResolutions(uint256)": "ca9b21ae",
    "chain()": "c763e5a1",
    "counter()": "61bc221a",
    "deposit(address,uint256)": "47e7ef24",
    "deposit_erc20(address,uint256)": "d16544f0",
    "deposit_eth()": "274b3df4",
    "getPendingRequests(uint256,uint256)": "79e041f2",
    "getUpdateForL2()": "b1538706",
    "initialize(address,address,uint8,address)": "ffea632b",
    "lastProcessedUpdate_origin_l1()": "7fd4f845",
    "lastProcessedUpdate_origin_l2()": "f26ee9d0",
    "owner()": "8da5cb5b",
    "pause(uint256)": "136439dd",
    "pauseAll()": "595c6a67",
    "paused()": "5c975abb",
    "paused(uint8)": "5ac86ab7",
    "pauserRegistry()": "886f1195",
    "pendingEthWithdrawals(address)": "80bc280c",
    "renounceOwnership()": "715018a6",
    "setPauserRegistry(address)": "10d67a2f",
    "setUpdater(address)": "9d54f419",
    "transferOwnership(address)": "f2fde38b",
    "unpause(uint256)": "fabc1cbc",
    "update_l1_from_l2((((uint8,uint256),(uint256,uint256),bytes32)[],((uint8,uint256),address,address,uint256)[],((uint8,uint256),uint256,uint8,bool)[]))": "5740b89d",
    "updaterAccount()": "71c54461",
    "withdraw_pending_eth(uint256)": "a7acab46",
    "withdrawalResolutions(uint256)": "a80fc9bd"
  },
  "id": 103
}